{
  "_format": "hh-sol-artifact-1",
  "contractName": "RequestForApproval",
  "sourceName": "contracts/requestForApproval.sol",
  "abi": [
    {
      "inputs": [
        {
          "internalType": "address",
          "name": "_owner",
          "type": "address"
        }
      ],
      "stateMutability": "nonpayable",
      "type": "constructor"
    },
    {
      "inputs": [],
      "name": "organizationOwner",
      "outputs": [
        {
          "internalType": "address",
          "name": "",
          "type": "address"
        }
      ],
      "stateMutability": "view",
      "type": "function"
    },
    {
      "inputs": [],
      "name": "response",
      "outputs": [
        {
          "internalType": "bool",
          "name": "",
          "type": "bool"
        }
      ],
      "stateMutability": "view",
      "type": "function"
    },
    {
      "inputs": [
        {
          "internalType": "bool",
          "name": "_response",
          "type": "bool"
        }
      ],
      "name": "signApproval",
      "outputs": [],
      "stateMutability": "nonpayable",
      "type": "function"
    }
  ],
  "bytecode": "0x608060405234801561001057600080fd5b506040516102903803806102908339818101604052602081101561003357600080fd5b8101908080519060200190929190505050600073ffffffffffffffffffffffffffffffffffffffff168173ffffffffffffffffffffffffffffffffffffffff1614156100ca576040517f08c379a000000000000000000000000000000000000000000000000000000000815260040180806020018281038252602281526020018061026e6022913960400191505060405180910390fd5b806000806101000a81548173ffffffffffffffffffffffffffffffffffffffff021916908373ffffffffffffffffffffffffffffffffffffffff160217905550506101548061011a6000396000f3fe608060405234801561001057600080fd5b50600436106100415760003560e01c80637a7f01a714610046578063d6ba72ed14610066578063e467fa2b14610096575b600080fd5b61004e6100ca565b60405180821515815260200191505060405180910390f35b6100946004803603602081101561007c57600080fd5b810190808035151590602001909291905050506100dd565b005b61009e6100fa565b604051808273ffffffffffffffffffffffffffffffffffffffff16815260200191505060405180910390f35b600060149054906101000a900460ff1681565b80600060146101000a81548160ff02191690831515021790555050565b60008054906101000a900473ffffffffffffffffffffffffffffffffffffffff168156fea26469706673582212202cdaeb9e686ace9c479d4693aa3e24a7625e91a49ced1addc75fbd16310b21ba64736f6c63430007030033496e76616c6964206f7267616e697a6174696f6e206f776e65722061646472657373",
  "linkReferences": {},
  "deployedLinkReferences": {}
}